{
  "contractName": "GeneralInformation",
  "abi": [
    {
      "inputs": [],
      "payable": false,
      "stateMutability": "nonpayable",
      "type": "constructor"
    },
    {
      "constant": false,
      "inputs": [
        {
          "internalType": "string",
          "name": "newName",
          "type": "string"
        }
      ],
      "name": "setName",
      "outputs": [],
      "payable": false,
      "stateMutability": "nonpayable",
      "type": "function"
    },
    {
      "constant": true,
      "inputs": [],
      "name": "getName",
      "outputs": [
        {
          "internalType": "string",
          "name": "",
          "type": "string"
        }
      ],
      "payable": false,
      "stateMutability": "view",
      "type": "function"
    },
    {
      "constant": false,
      "inputs": [
        {
          "internalType": "uint256",
          "name": "newAge",
          "type": "uint256"
        }
      ],
      "name": "setAge",
      "outputs": [],
      "payable": false,
      "stateMutability": "nonpayable",
      "type": "function"
    },
    {
      "constant": true,
      "inputs": [],
      "name": "getAge",
      "outputs": [
        {
          "internalType": "uint256",
          "name": "",
          "type": "uint256"
        }
      ],
      "payable": false,
      "stateMutability": "view",
      "type": "function"
    },
    {
      "constant": false,
      "inputs": [
        {
          "internalType": "string",
          "name": "newPhone",
          "type": "string"
        }
      ],
      "name": "setPhone",
      "outputs": [],
      "payable": false,
      "stateMutability": "nonpayable",
      "type": "function"
    },
    {
      "constant": true,
      "inputs": [],
      "name": "getPhone",
      "outputs": [
        {
          "internalType": "string",
          "name": "",
          "type": "string"
        }
      ],
      "payable": false,
      "stateMutability": "view",
      "type": "function"
    },
    {
      "constant": false,
      "inputs": [
        {
          "internalType": "string",
          "name": "newAdress",
          "type": "string"
        }
      ],
      "name": "setAdress",
      "outputs": [],
      "payable": false,
      "stateMutability": "nonpayable",
      "type": "function"
    },
    {
      "constant": true,
      "inputs": [],
      "name": "getAdress",
      "outputs": [
        {
          "internalType": "string",
          "name": "",
          "type": "string"
        }
      ],
      "payable": false,
      "stateMutability": "view",
      "type": "function"
    },
    {
      "constant": false,
      "inputs": [
        {
          "internalType": "string",
          "name": "newDate",
          "type": "string"
        }
      ],
      "name": "setBirthdate",
      "outputs": [],
      "payable": false,
      "stateMutability": "nonpayable",
      "type": "function"
    },
    {
      "constant": true,
      "inputs": [],
      "name": "getBirthdate",
      "outputs": [
        {
          "internalType": "string",
          "name": "",
          "type": "string"
        }
      ],
      "payable": false,
      "stateMutability": "view",
      "type": "function"
    },
    {
      "constant": false,
      "inputs": [
        {
          "internalType": "string",
          "name": "newGender",
          "type": "string"
        }
      ],
      "name": "setGender",
      "outputs": [],
      "payable": false,
      "stateMutability": "nonpayable",
      "type": "function"
    },
    {
      "constant": true,
      "inputs": [],
      "name": "getGender",
      "outputs": [
        {
          "internalType": "string",
          "name": "",
          "type": "string"
        }
      ],
      "payable": false,
      "stateMutability": "view",
      "type": "function"
    },
    {
      "constant": false,
      "inputs": [
        {
          "internalType": "string",
          "name": "newRace",
          "type": "string"
        }
      ],
      "name": "setRace",
      "outputs": [],
      "payable": false,
      "stateMutability": "nonpayable",
      "type": "function"
    },
    {
      "constant": true,
      "inputs": [],
      "name": "getRace",
      "outputs": [
        {
          "internalType": "string",
          "name": "",
          "type": "string"
        }
      ],
      "payable": false,
      "stateMutability": "view",
      "type": "function"
    },
    {
      "constant": false,
      "inputs": [
        {
          "internalType": "string",
          "name": "newLanguage",
          "type": "string"
        }
      ],
      "name": "setLanguage",
      "outputs": [],
      "payable": false,
      "stateMutability": "nonpayable",
      "type": "function"
    },
    {
      "constant": true,
      "inputs": [],
      "name": "getLanguage",
      "outputs": [
        {
          "internalType": "string",
          "name": "",
          "type": "string"
        }
      ],
      "payable": false,
      "stateMutability": "view",
      "type": "function"
    },
    {
      "constant": false,
      "inputs": [
        {
          "internalType": "string",
          "name": "newEmployeeStatus",
          "type": "string"
        }
      ],
      "name": "setEmployeeStatus",
      "outputs": [],
      "payable": false,
      "stateMutability": "nonpayable",
      "type": "function"
    },
    {
      "constant": true,
      "inputs": [],
      "name": "getEmployeeStatus",
      "outputs": [
        {
          "internalType": "string",
          "name": "",
          "type": "string"
        }
      ],
      "payable": false,
      "stateMutability": "view",
      "type": "function"
    },
    {
      "constant": false,
      "inputs": [
        {
          "internalType": "string",
          "name": "newEmail",
          "type": "string"
        }
      ],
      "name": "setEmail",
      "outputs": [],
      "payable": false,
      "stateMutability": "nonpayable",
      "type": "function"
    },
    {
      "constant": true,
      "inputs": [],
      "name": "getEmail",
      "outputs": [
        {
          "internalType": "string",
          "name": "",
          "type": "string"
        }
      ],
      "payable": false,
      "stateMutability": "view",
      "type": "function"
    }
  ],
  "bytecode": "0x60806040523480156200001157600080fd5b5060408051808201909152600b8082526a53616d706c65204e616d6560a81b60209092019182526200004691600091620001fa565b50600060015560408051808201909152600b8082526a139bdd081919599a5b995960aa1b60209092019182526200008091600291620001fa565b5060408051808201909152600b8082526a139bdd081919599a5b995960aa1b6020909201918252620000b591600391620001fa565b5060408051808201909152600b8082526a139bdd081919599a5b995960aa1b6020909201918252620000ea91600491620001fa565b5060408051808201909152600b8082526a139bdd081919599a5b995960aa1b60209092019182526200011f91600591620001fa565b5060408051808201909152600b8082526a139bdd081919599a5b995960aa1b60209092019182526200015491600691620001fa565b5060408051808201909152600b8082526a139bdd081919599a5b995960aa1b60209092019182526200018991600791620001fa565b5060408051808201909152600b8082526a139bdd081919599a5b995960aa1b6020909201918252620001be91600891620001fa565b5060408051808201909152600b8082526a139bdd081919599a5b995960aa1b6020909201918252620001f391600991620001fa565b506200029f565b828054600181600116156101000203166002900490600052602060002090601f016020900481019282601f106200023d57805160ff19168380011785556200026d565b828001600101855582156200026d579182015b828111156200026d57825182559160200191906001019062000250565b506200027b9291506200027f565b5090565b6200029c91905b808211156200027b576000815560010162000286565b90565b610d0a80620002af6000396000f3fe608060405234801561001057600080fd5b506004361061012c5760003560e01c80638863bab0116100ad578063ac52f0cb11610071578063ac52f0cb146105da578063c47f0027146105e2578063d5dcf12714610686578063dfe68b54146106a3578063f212e265146107475761012c565b80638863bab0146105045780638fedff971461050c578063967e6e65146105b05780639ff10941146105ca578063a8f927e9146105d25761012c565b806355d29314116100f457806355d29314146103a45780636b37d362146104485780637c38a8c3146104505780637e79e8ba14610458578063866378fc146104605761012c565b806317d7de7c146101315780631ce71c38146101ae578063282b065a146101b65780632921dc531461025c578063525b34ed14610300575b600080fd5b6101396107eb565b6040805160208082528351818301528351919283929083019185019080838360005b8381101561017357818101518382015260200161015b565b50505050905090810190601f1680156101a05780820380516001836020036101000a031916815260200191505b509250505060405180910390f35b610139610882565b61025a600480360360208110156101cc57600080fd5b810190602081018135600160201b8111156101e657600080fd5b8201836020820111156101f857600080fd5b803590602001918460018302840111600160201b8311171561021957600080fd5b91908080601f0160208091040260200160405190810160405280939291908181526020018383808284376000920191909152509295506108e3945050505050565b005b61025a6004803603602081101561027257600080fd5b810190602081018135600160201b81111561028c57600080fd5b82018360208201111561029e57600080fd5b803590602001918460018302840111600160201b831117156102bf57600080fd5b91908080601f0160208091040260200160405190810160405280939291908181526020018383808284376000920191909152509295506108fa945050505050565b61025a6004803603602081101561031657600080fd5b810190602081018135600160201b81111561033057600080fd5b82018360208201111561034257600080fd5b803590602001918460018302840111600160201b8311171561036357600080fd5b91908080601f01602080910402602001604051908101604052809392919081815260200183838082843760009201919091525092955061090d945050505050565b61025a600480360360208110156103ba57600080fd5b810190602081018135600160201b8111156103d457600080fd5b8201836020820111156103e657600080fd5b803590602001918460018302840111600160201b8311171561040757600080fd5b91908080601f016020809104026020016040519081016040528093929190818152602001838380828437600092019190915250929550610920945050505050565b610139610933565b610139610994565b6101396109f5565b61025a6004803603602081101561047657600080fd5b810190602081018135600160201b81111561049057600080fd5b8201836020820111156104a257600080fd5b803590602001918460018302840111600160201b831117156104c357600080fd5b91908080601f016020809104026020016040519081016040528093929190818152602001838380828437600092019190915250929550610a56945050505050565b610139610a69565b61025a6004803603602081101561052257600080fd5b810190602081018135600160201b81111561053c57600080fd5b82018360208201111561054e57600080fd5b803590602001918460018302840111600160201b8311171561056f57600080fd5b91908080601f016020809104026020016040519081016040528093929190818152602001838380828437600092019190915250929550610ac7945050505050565b6105b8610ada565b60408051918252519081900360200190f35b610139610ae0565b610139610b41565b610139610ba2565b61025a600480360360208110156105f857600080fd5b810190602081018135600160201b81111561061257600080fd5b82018360208201111561062457600080fd5b803590602001918460018302840111600160201b8311171561064557600080fd5b91908080601f016020809104026020016040519081016040528093929190818152602001838380828437600092019190915250929550610c03945050505050565b61025a6004803603602081101561069c57600080fd5b5035610c16565b61025a600480360360208110156106b957600080fd5b810190602081018135600160201b8111156106d357600080fd5b8201836020820111156106e557600080fd5b803590602001918460018302840111600160201b8311171561070657600080fd5b91908080601f016020809104026020016040519081016040528093929190818152602001838380828437600092019190915250929550610c1b945050505050565b61025a6004803603602081101561075d57600080fd5b810190602081018135600160201b81111561077757600080fd5b82018360208201111561078957600080fd5b803590602001918460018302840111600160201b831117156107aa57600080fd5b91908080601f016020809104026020016040519081016040528093929190818152602001838380828437600092019190915250929550610c2e945050505050565b60008054604080516020601f60026000196101006001881615020190951694909404938401819004810282018101909252828152606093909290918301828280156108775780601f1061084c57610100808354040283529160200191610877565b820191906000526020600020905b81548152906001019060200180831161085a57829003601f168201915b505050505090505b90565b60068054604080516020601f60026000196101006001881615020190951694909404938401819004810282018101909252828152606093909290918301828280156108775780601f1061084c57610100808354040283529160200191610877565b80516108f6906009906020840190610c3d565b5050565b80516108f6906007906020840190610c3d565b80516108f6906006906020840190610c3d565b80516108f6906004906020840190610c3d565b60038054604080516020601f60026000196101006001881615020190951694909404938401819004810282018101909252828152606093909290918301828280156108775780601f1061084c57610100808354040283529160200191610877565b60058054604080516020601f60026000196101006001881615020190951694909404938401819004810282018101909252828152606093909290918301828280156108775780601f1061084c57610100808354040283529160200191610877565b60098054604080516020601f60026000196101006001881615020190951694909404938401819004810282018101909252828152606093909290918301828280156108775780601f1061084c57610100808354040283529160200191610877565b80516108f6906003906020840190610c3d565b60028054604080516020601f60001961010060018716150201909416859004938401819004810282018101909252828152606093909290918301828280156108775780601f1061084c57610100808354040283529160200191610877565b80516108f6906008906020840190610c3d565b60015490565b60048054604080516020601f60026000196101006001881615020190951694909404938401819004810282018101909252828152606093909290918301828280156108775780601f1061084c57610100808354040283529160200191610877565b60078054604080516020601f60026000196101006001881615020190951694909404938401819004810282018101909252828152606093909290918301828280156108775780601f1061084c57610100808354040283529160200191610877565b60088054604080516020601f60026000196101006001881615020190951694909404938401819004810282018101909252828152606093909290918301828280156108775780601f1061084c57610100808354040283529160200191610877565b80516108f6906000906020840190610c3d565b600155565b80516108f6906002906020840190610c3d565b80516108f69060059060208401905b828054600181600116156101000203166002900490600052602060002090601f016020900481019282601f10610c7e57805160ff1916838001178555610cab565b82800160010185558215610cab579182015b82811115610cab578251825591602001919060010190610c90565b50610cb7929150610cbb565b5090565b61087f91905b80821115610cb75760008155600101610cc156fea265627a7a723158205c1d3a326dc588d0e2f06ae0593048da2755ea73a961b4c4a8c6e9174801a32764736f6c63430005100032",
  "source": "pragma solidity 0.5.16;\r\ncontract GeneralInformation{\r\n\tstring name;\r\n\tuint age;\r\n    string phone;\r\n    string adress;\r\n    string birthdate;\r\n    string gender;\r\n    string race;\r\n    string language;\r\n    string employeeStatus;\r\n    string email;\r\n\r\n\t\r\n\tconstructor() public {\r\n\t\tname = \"Sample Name\";\r\n        age = 0;\r\n        phone = \"Not defined\";\r\n        adress = \"Not defined\";\r\n        birthdate = \"Not defined\";\r\n        gender = \"Not defined\";\r\n        race = \"Not defined\";\r\n        language = \"Not defined\";\r\n        employeeStatus = \"Not defined\";\r\n        email = \"Not defined\";\r\n        \r\n\t} \r\n\tfunction setName(string memory newName) public {\r\n\t\tname = newName;\r\n\t}\r\n\t\r\n\tfunction getName() public view returns (string memory) {\r\n\t\treturn name; \r\n\t\t\r\n\t}\r\n\t\r\n\tfunction setAge (uint newAge) public{\r\n\t\tage = newAge;\r\n\t}\r\n\t\r\n\tfunction getAge() public view returns (uint) {\r\n\t\treturn age;\r\n\t}\r\n\tfunction setPhone(string memory newPhone) public {\r\n\t\tphone = newPhone;\r\n\t}\r\n\t\r\n\tfunction getPhone() public view returns (string memory) {\r\n\t\treturn phone;\r\n\t}\r\n\r\n    function setAdress(string memory newAdress) public {\r\n\t\tadress = newAdress;\r\n\t}\r\n\t\r\n\tfunction getAdress() public view returns (string memory) {\r\n\t\treturn adress;\r\n\t}\r\n\r\n    function setBirthdate(string memory newDate) public {\r\n\t\tbirthdate = newDate;\r\n\t}\r\n\t\r\n\tfunction getBirthdate() public view returns (string memory) {\r\n\t\treturn birthdate;\r\n\t}\r\n\r\n    function setGender(string memory newGender) public {\r\n        gender = newGender;\r\n\t}\r\n\t\r\n\tfunction getGender() public view returns (string memory) {\r\n\t\treturn gender;\r\n\t}\r\n\r\n    function setRace(string memory newRace) public {\r\n\t\trace = newRace;\r\n\t}\r\n\t\r\n\tfunction getRace() public view returns (string memory) {\r\n\t\treturn race;\r\n\t}\r\n\r\n    function setLanguage(string memory newLanguage) public {\r\n\t\tlanguage = newLanguage;\r\n\t}\r\n\t\r\n\tfunction getLanguage() public view returns (string memory) {\r\n\t\treturn language;\r\n\t}\r\n\r\n    function setEmployeeStatus(string memory newEmployeeStatus) public {\r\n\t\temployeeStatus = newEmployeeStatus;\r\n\t}\r\n\t\r\n\tfunction getEmployeeStatus() public view returns (string memory) {\r\n\t\treturn employeeStatus;\r\n\t}\r\n\r\n    function setEmail(string memory newEmail) public {\r\n\t\temail = newEmail;\r\n\t}\r\n\t\r\n\tfunction getEmail() public view returns (string memory) {\r\n\t\treturn email;\r\n\t}\r\n}",
  "sourcePath": "F:/Uni/blockchain-prj/client/contracts/GeneralInformation.sol",
  "compiler": {
    "name": "solc",
    "version": "0.5.16+commit.9c3226ce.Emscripten.clang"
  },
  "schemaVersion": "3.0.21",
  "updatedAt": "2020-05-06T05:58:35.479Z",
  "networkType": "ethereum",
  "devdoc": {
    "methods": {}
  },
  "userdoc": {
    "methods": {}
  }
}