{
  "contractName": "HealthInformation",
  "abi": [
    {
      "constant": true,
      "inputs": [
        {
          "internalType": "string",
          "name": "_a",
          "type": "string"
        },
        {
          "internalType": "string",
          "name": "_b",
          "type": "string"
        }
      ],
      "name": "concat",
      "outputs": [
        {
          "internalType": "string",
          "name": "",
          "type": "string"
        }
      ],
      "payable": false,
      "stateMutability": "pure",
      "type": "function"
    },
    {
      "constant": false,
      "inputs": [
        {
          "internalType": "string",
          "name": "newProblems",
          "type": "string"
        }
      ],
      "name": "addProblems",
      "outputs": [],
      "payable": false,
      "stateMutability": "nonpayable",
      "type": "function"
    },
    {
      "constant": true,
      "inputs": [],
      "name": "getProblems",
      "outputs": [
        {
          "internalType": "string",
          "name": "",
          "type": "string"
        }
      ],
      "payable": false,
      "stateMutability": "view",
      "type": "function"
    },
    {
      "constant": false,
      "inputs": [
        {
          "internalType": "string",
          "name": "newMedication",
          "type": "string"
        }
      ],
      "name": "addMedications",
      "outputs": [],
      "payable": false,
      "stateMutability": "nonpayable",
      "type": "function"
    },
    {
      "constant": true,
      "inputs": [],
      "name": "getMedications",
      "outputs": [
        {
          "internalType": "string",
          "name": "",
          "type": "string"
        }
      ],
      "payable": false,
      "stateMutability": "view",
      "type": "function"
    },
    {
      "constant": false,
      "inputs": [
        {
          "internalType": "string",
          "name": "newDirectives",
          "type": "string"
        }
      ],
      "name": "addDirectives",
      "outputs": [],
      "payable": false,
      "stateMutability": "nonpayable",
      "type": "function"
    },
    {
      "constant": true,
      "inputs": [],
      "name": "getDirectives",
      "outputs": [
        {
          "internalType": "string",
          "name": "",
          "type": "string"
        }
      ],
      "payable": false,
      "stateMutability": "view",
      "type": "function"
    },
    {
      "constant": false,
      "inputs": [
        {
          "internalType": "string",
          "name": "newToHistory",
          "type": "string"
        }
      ],
      "name": "addToHistory",
      "outputs": [],
      "payable": false,
      "stateMutability": "nonpayable",
      "type": "function"
    },
    {
      "constant": true,
      "inputs": [],
      "name": "getHistory",
      "outputs": [
        {
          "internalType": "string",
          "name": "",
          "type": "string"
        }
      ],
      "payable": false,
      "stateMutability": "view",
      "type": "function"
    }
  ],
  "bytecode": "0x608060405234801561001057600080fd5b50610a70806100206000396000f3fe608060405234801561001057600080fd5b50600436106100935760003560e01c8063a15d0b8511610066578063a15d0b8514610388578063a86045361461042c578063aa15efc8146104d0578063d38f3b68146104d8578063e4780c84146104e057610093565b80631fe8c94c1461009857806342d159121461013e5780635a75a1ff146101bb57806389c19ddb1461025f575b600080fd5b61013c600480360360208110156100ae57600080fd5b810190602081018135600160201b8111156100c857600080fd5b8201836020820111156100da57600080fd5b803590602001918460018302840111600160201b831117156100fb57600080fd5b91908080601f0160208091040260200160405190810160405280939291908181526020018383808284376000920191909152509295506104e8945050505050565b005b610146610598565b6040805160208082528351818301528351919283929083019185019080838360005b83811015610180578181015183820152602001610168565b50505050905090810190601f1680156101ad5780820380516001836020036101000a031916815260200191505b509250505060405180910390f35b61013c600480360360208110156101d157600080fd5b810190602081018135600160201b8111156101eb57600080fd5b8201836020820111156101fd57600080fd5b803590602001918460018302840111600160201b8311171561021e57600080fd5b91908080601f01602080910402602001604051908101604052809392919081815260200183838082843760009201919091525092955061062f945050505050565b6101466004803603604081101561027557600080fd5b810190602081018135600160201b81111561028f57600080fd5b8201836020820111156102a157600080fd5b803590602001918460018302840111600160201b831117156102c257600080fd5b91908080601f0160208091040260200160405190810160405280939291908181526020018383808284376000920191909152509295949360208101935035915050600160201b81111561031457600080fd5b82018360208201111561032657600080fd5b803590602001918460018302840111600160201b8311171561034757600080fd5b91908080601f0160208091040260200160405190810160405280939291908181526020018383808284376000920191909152509295506106a5945050505050565b61013c6004803603602081101561039e57600080fd5b810190602081018135600160201b8111156103b857600080fd5b8201836020820111156103ca57600080fd5b803590602001918460018302840111600160201b831117156103eb57600080fd5b91908080601f01602080910402602001604051908101604052809392919081815260200183838082843760009201919091525092955061079c945050505050565b61013c6004803603602081101561044257600080fd5b810190602081018135600160201b81111561045c57600080fd5b82018360208201111561046e57600080fd5b803590602001918460018302840111600160201b8311171561048f57600080fd5b91908080601f016020809104026020016040519081016040528093929190818152602001838380828437600092019190915250929550610811945050505050565b610146610884565b6101466108e5565b610146610945565b60038054604080516020601f6002600019610100600188161502019095169490940493840181900481028201810190925282815261058093909290918301828280156105755780601f1061054a57610100808354040283529160200191610575565b820191906000526020600020905b81548152906001019060200180831161055857829003601f168201915b5050505050826106a5565b8051610594916003916020909101906109a3565b5050565b60008054604080516020601f60026000196101006001881615020190951694909404938401819004810282018101909252828152606093909290918301828280156106245780601f106105f957610100808354040283529160200191610624565b820191906000526020600020905b81548152906001019060200180831161060757829003601f168201915b505050505090505b90565b60008054604080516020601f6002600019610100600188161502019095169490940493840181900481028201810190925282815261069193909290918301828280156105755780601f1061054a57610100808354040283529160200191610575565b8051610594916000916020909101906109a3565b6060808390506060839050606081518351016040519080825280601f01601f1916602001820160405280156106e1576020820181803883390190505b509050806000805b855181101561073a578581815181106106fe57fe5b602001015160f81c60f81b83838060010194508151811061071b57fe5b60200101906001600160f81b031916908160001a9053506001016106e9565b5060005b845181101561078f5784818151811061075357fe5b602001015160f81c60f81b83838060010194508151811061077057fe5b60200101906001600160f81b031916908160001a90535060010161073e565b5090979650505050505050565b60018054604080516020601f6002600019610100878916150201909516949094049384018190048102820181019092528281526107fd93909290918301828280156105755780601f1061054a57610100808354040283529160200191610575565b8051610594916001916020909101906109a3565b60028054604080516020601f6000196101006001871615020190941685900493840181900481028201810190925282815261087093909290918301828280156105755780601f1061054a57610100808354040283529160200191610575565b8051610594916002916020909101906109a3565b60038054604080516020601f60026000196101006001881615020190951694909404938401819004810282018101909252828152606093909290918301828280156106245780601f106105f957610100808354040283529160200191610624565b60018054604080516020601f600260001961010087891615020190951694909404938401819004810282018101909252828152606093909290918301828280156106245780601f106105f957610100808354040283529160200191610624565b60028054604080516020601f60001961010060018716150201909416859004938401819004810282018101909252828152606093909290918301828280156106245780601f106105f957610100808354040283529160200191610624565b828054600181600116156101000203166002900490600052602060002090601f016020900481019282601f106109e457805160ff1916838001178555610a11565b82800160010185558215610a11579182015b82811115610a115782518255916020019190600101906109f6565b50610a1d929150610a21565b5090565b61062c91905b80821115610a1d5760008155600101610a2756fea265627a7a72315820d0f7b6f6ee3e70358e5cd52ea1b51db4857a495aacca7b2ce09971fdc65bf1f764736f6c63430005100032",
  "source": "pragma solidity 0.5.16;\r\n\r\ncontract HealthInformation{\r\n\r\n    string problems;\r\n    string medications;\r\n    string directives;\r\n    string history;\r\n\r\n    function concat(string memory _a, string memory _b) public pure returns (string memory) {\r\n        bytes memory bytes_a = bytes(_a);\r\n        bytes memory bytes_b = bytes(_b);\r\n        string memory length_ab = new string(bytes_a.length + bytes_b.length);\r\n        bytes memory bytes_c = bytes(length_ab);\r\n        uint k = 0;\r\n        uint i ;\r\n        for (i = 0; i < bytes_a.length; i++) bytes_c[k++] = bytes_a[i];\r\n        for (i = 0; i < bytes_b.length; i++) bytes_c[k++] = bytes_b[i];\r\n        return string(bytes_c);\r\n    }\r\n\r\n    function addProblems(string memory newProblems) public {\r\n\t\tproblems = concat(problems, newProblems);\r\n\t}\r\n\t\r\n\tfunction getProblems() public view returns (string memory) {\r\n\t\treturn problems; \r\n\t\t\r\n\t}\r\n\r\n    function addMedications(string memory newMedication) public {\r\n\t\tmedications = concat(medications,newMedication);\r\n\t}\r\n\t\r\n\tfunction getMedications() public view returns (string memory) {\r\n\t\treturn medications; \r\n\t\t\r\n\t}\r\n\r\n    function addDirectives(string memory newDirectives) public {\r\n\t\tdirectives = concat(directives,newDirectives);\r\n\t}\r\n\t\r\n\tfunction getDirectives() public view returns (string memory) {\r\n\t\treturn directives; \r\n\t\t\r\n\t}\r\n\r\n    function addToHistory(string memory newToHistory) public {\r\n\t\thistory = concat(history,newToHistory);\r\n\t}\r\n\t\r\n\tfunction getHistory() public view returns (string memory) {\r\n\t\treturn history; \r\n\t\t\r\n\t}\r\n\r\n\r\n\r\n}",
  "sourcePath": "F:/Uni/blockchain-prj/client/contracts/HealthInformation.sol",
  "compiler": {
    "name": "solc",
    "version": "0.5.16+commit.9c3226ce.Emscripten.clang"
  },
  "schemaVersion": "3.0.21",
  "updatedAt": "2020-05-06T05:58:35.486Z",
  "networkType": "ethereum",
  "devdoc": {
    "methods": {}
  },
  "userdoc": {
    "methods": {}
  }
}