{
  "contractName": "MyContract",
  "abi": [
    {
      "inputs": [],
      "payable": false,
      "stateMutability": "nonpayable",
      "type": "constructor"
    },
    {
      "constant": false,
      "inputs": [
        {
          "internalType": "string",
          "name": "newName",
          "type": "string"
        }
      ],
      "name": "setName",
      "outputs": [],
      "payable": false,
      "stateMutability": "nonpayable",
      "type": "function"
    },
    {
      "constant": true,
      "inputs": [],
      "name": "getName",
      "outputs": [
        {
          "internalType": "string",
          "name": "",
          "type": "string"
        }
      ],
      "payable": false,
      "stateMutability": "view",
      "type": "function"
    },
    {
      "constant": false,
      "inputs": [
        {
          "internalType": "uint256",
          "name": "newAge",
          "type": "uint256"
        }
      ],
      "name": "setAge",
      "outputs": [],
      "payable": false,
      "stateMutability": "nonpayable",
      "type": "function"
    },
    {
      "constant": true,
      "inputs": [],
      "name": "getAge",
      "outputs": [
        {
          "internalType": "uint256",
          "name": "",
          "type": "uint256"
        }
      ],
      "payable": false,
      "stateMutability": "view",
      "type": "function"
    },
    {
      "constant": true,
      "inputs": [],
      "name": "get",
      "outputs": [
        {
          "internalType": "string",
          "name": "",
          "type": "string"
        }
      ],
      "payable": false,
      "stateMutability": "view",
      "type": "function"
    },
    {
      "constant": false,
      "inputs": [
        {
          "internalType": "string",
          "name": "_value",
          "type": "string"
        }
      ],
      "name": "set",
      "outputs": [],
      "payable": false,
      "stateMutability": "nonpayable",
      "type": "function"
    }
  ],
  "bytecode": "0x608060405234801561001057600080fd5b50604080518082019091526007808252666d7956616c756560c81b602090920191825261003f91600291610045565b506100e0565b828054600181600116156101000203166002900490600052602060002090601f016020900481019282601f1061008657805160ff19168380011785556100b3565b828001600101855582156100b3579182015b828111156100b3578251825591602001919060010190610098565b506100bf9291506100c3565b5090565b6100dd91905b808211156100bf57600081556001016100c9565b90565b610468806100ef6000396000f3fe608060405234801561001057600080fd5b50600436106100625760003560e01c806317d7de7c146100675780634ed3885e146100e45780636d4ce63c1461018c578063967e6e6514610194578063c47f0027146101ae578063d5dcf12714610254575b600080fd5b61006f610271565b6040805160208082528351818301528351919283929083019185019080838360005b838110156100a9578181015183820152602001610091565b50505050905090810190601f1680156100d65780820380516001836020036101000a031916815260200191505b509250505060405180910390f35b61018a600480360360208110156100fa57600080fd5b81019060208101813564010000000081111561011557600080fd5b82018360208201111561012757600080fd5b8035906020019184600183028401116401000000008311171561014957600080fd5b91908080601f016020809104026020016040519081016040528093929190818152602001838380828437600092019190915250929550610308945050505050565b005b61006f61031f565b61019c61037d565b60408051918252519081900360200190f35b61018a600480360360208110156101c457600080fd5b8101906020810181356401000000008111156101df57600080fd5b8201836020820111156101f157600080fd5b8035906020019184600183028401116401000000008311171561021357600080fd5b91908080601f016020809104026020016040519081016040528093929190818152602001838380828437600092019190915250929550610383945050505050565b61018a6004803603602081101561026a57600080fd5b5035610396565b60008054604080516020601f60026000196101006001881615020190951694909404938401819004810282018101909252828152606093909290918301828280156102fd5780601f106102d2576101008083540402835291602001916102fd565b820191906000526020600020905b8154815290600101906020018083116102e057829003601f168201915b505050505090505b90565b805161031b90600290602084019061039b565b5050565b60028054604080516020601f60001961010060018716150201909416859004938401819004810282018101909252828152606093909290918301828280156102fd5780601f106102d2576101008083540402835291602001916102fd565b60015490565b805161031b90600090602084019061039b565b600155565b828054600181600116156101000203166002900490600052602060002090601f016020900481019282601f106103dc57805160ff1916838001178555610409565b82800160010185558215610409579182015b828111156104095782518255916020019190600101906103ee565b50610415929150610419565b5090565b61030591905b80821115610415576000815560010161041f56fea265627a7a72315820c80c4306a11a007f1145005306a4e371142f7b2decfefa1e631fd8c6a680538d64736f6c63430005100032",
  "source": "pragma solidity 0.5.16;\ncontract MyContract{\n\tstring private name;\n\tuint private age;\n\tstring value;\n\t\n\tconstructor() public {\n\t\tvalue = \"myValue\";\n\t}\n\t\n\tfunction setName(string memory newName) public {\n\t\tname = newName;\n\t}\n\t\n\tfunction getName() public view returns (string memory) {\n\t\treturn name;\n\t}\n\t\n\tfunction setAge (uint newAge) public{\n\t\tage = newAge;\n\t}\n\t\n\tfunction getAge() public view returns (uint) {\n\t\treturn age;\n\t}\n\t\n\tfunction get() public view returns(string memory) {\n\t\treturn value;\n\t}\n\t\n\tfunction set(string memory _value) public {\n\t\tvalue = _value;\n\t}\n}",
  "sourcePath": "F:/Uni/blockchain-prj/client/contracts/MyContract.sol",
  "compiler": {
    "name": "solc",
    "version": "0.5.16+commit.9c3226ce.Emscripten.clang"
  },
  "schemaVersion": "3.0.21",
  "updatedAt": "2020-05-06T05:58:35.472Z",
  "networkType": "ethereum",
  "devdoc": {
    "methods": {}
  },
  "userdoc": {
    "methods": {}
  }
}